:020000040800F2
:10000000C81100209D01000851200008532000085D
:10001000572000085B2000085F2000080000000057
:100020000000000000000000000000006320000845
:100030006520000800000000672000086920000813
:10004000B7010008B7010008B7010008B7010008B0
:10005000B7010008B7010008B7010008B7010008A0
:10006000B7010008B7010008B7010008B701000890
:10007000B7010008B7010008B7010008B701000880
:10008000B7010008B7010008B7010008B701000870
:10009000B7010008B7010008B7010008B701000860
:1000A000B7010008B7010008B7010008B701000850
:1000B000652200083D260008B7010008B7010008C6
:1000C000B7010008B7010008B7010008B701000830
:1000D000B7010008D1240008B7010008B1260008C4
:1000E000B7010008B7010008B7010008B701000810
:1000F000B7010008B7010008B7010008B701000800
:10010000B7010008B7010008B7010008B7010008EF
:10011000B7010008B7010008B7010008B7010008DF
:10012000B7010008B7010008B7010008B7010008CF
:10013000B7010008B7010008B7010008B7010008BF
:10014000B7010008B7010008B7010008B7010008AF
:10015000B7010008B7010008B7010008B70100089F
:10016000B7010008B7010008B7010008B70100088F
:10017000B7010008B7010008B7010008B70100087F
:10018000B7010008B7010008DFF80CD004F0EAFC62
:1001900000480047751F0008C81100200648804726
:1001A00006480047FEE7FEE7FEE7FEE7FEE7FEE75C
:1001B000FEE7FEE7FEE7FEE79D0200088901000872
:1001C0000CB50020019000907648006840F4803023
:1001D0007449086000BF7348006800F40030009064
:1001E0000198401C0190009818B90198B0F5A04FF3
:1001F000F1D16C48006800F4003010B1012000908B
:1002000001E0002000900098012846D16548403068
:10021000006840F0805063494031086062480068DF
:1002200040F44040604908605E48083000685D491D
:10023000083108600846006840F40040086008463D
:10024000006840F4A05008605848091F0860081F63
:10025000006840F08070091F086000BF51480068C6
:1002600000F000700028F9D040F205705049086095
:100270004C480830006820F003004A490831086003
:100280000846006840F00200086000BF454808309A
:10029000006800F00C000828F8D10CBD10B54548E6
:1002A000006840F47000434908603E48006840F030
:1002B00001003C49086000203A490831086039488B
:1002C00000683D490840374908603C48091D0860FE
:1002D000081F006820F48020091F086000203149B1
:1002E0000C310860FFF76CFF4FF000603149803936
:1002F000086010BD70B500200022022300240221F6
:10030000284D08352D6805F00C0020B1042806D0D2
:10031000082834D107E02A4D2A4E356033E02A4DB3
:10032000284E35602FE01F4D2D1D2D68C5F38054DC
:100330001C4D2D1D2D6805F03F0154B1224DB5FB1C
:10034000F1F5184E361D3668C6F3881605FB06F221
:1003500009E01B4DB5FBF1F5124E361D3668C6F3AC
:10036000881605FB06F20F4D2D1D2D68C5F30145BE
:100370006D1C6B00B2FBF3F5124E356003E0104DBF
:10038000104E356000BF00BF064D08352D68C5F31F
:1003900003150E4E705D0B4D2D68C540094E35603E
:1003A00070BD000000380240007000400854400753
:1003B000003C024088ED00E0FFFFF6FE1030002414
:1003C0000024F4000000002000127A000400002045
:1003D00032490143324A1160704770B50021002351
:1003E0000F22C4781CB32E4C246804F4E064C4F5D6
:1003F000E064C4F30721C1F10404E3B20A41447884
:100400009C40E1B28478144021430C07210E254C16
:1004100005786155047804F01F050124AC40057887
:100420006D11AD0005F1E025C5F8004109E0047843
:1004300004F01F050124AC401B4D0678761145F8E9
:10044000264070BD194A0A400243154B1B1F1A6013
:10045000704739B1124A121D12680243104B1B1D1E
:100460001A6006E00E4A121D126882430C4B1B1DD7
:100470001A607047042808D14FF0E021096941F063
:1004800004014FF0E022116107E04FF0E02109691B
:1004900021F004014FF0E022116170470000FA05DD
:1004A0000CED00E000E400E080E100E080FFFF1FD1
:1004B00010B504469848844208D10121084600F04E
:1004C000A6FB0021012000F0A2FB76E093488442C5
:1004D00008D10121022000F09AFB0021022000F047
:1004E00096FB6AE08E48844208D10121042000F086
:1004F0008EFB0021042000F08AFB5EE089488442E4
:1005000008D10121082000F082FB0021082000F022
:100510007EFB52E08448844208D10121102000F083
:1005200076FB0021102000F072FB46E07F488442F9
:1005300008D10121202000F06AFB0021202000F0DA
:1005400066FB3AE07A48844208D10121402000F05D
:100550005EFB0021402000F05AFB2EE075488442EB
:1005600008D10121802000F052FB0021802000F002
:100570004EFB22E07048844208D10121801500F032
:1005800046FB0021A01500F042FB16E06B488442B8
:1005900008D10121401500F03AFB0021601500F060
:1005A00036FB0AE06648844207D10121001500F0BD
:1005B0002EFB0021201500F02AFB10BDF0B50A46E5
:1005C00000210023002400BF3DE0012505FA01F3CE
:1005D000156805EA03049C4234D105684F000326E0
:1005E000BE40B543056015794E00B54006683543F9
:1005F00005601579012D02D01579022D16D1856877
:100600004F000326BE40B543856055794E00B54086
:10061000866835438560456801268E40B543456050
:10062000456896798E40B6B235434560C5684F003F
:100630000326BE40B543C560D5794E00B540C668B7
:100640003543C560491C1029BFD3F0BD4FF6FF717B
:1006500001600021017141718171C171704708B55C
:100660004FF480320092009A0A430092009AC261CD
:10067000C161009AC261C2690092C269009208BD5C
:100680000246002013690B400BB1012000E000205E
:1006900070470146086980B27047024600205369DE
:1006A0000B400BB1012000E0002070470146486973
:1006B00080B2704701837047418370470AB101835C
:1006C00000E0418370474161704742694A4042619E
:1006D0007047F0B5002300244D07ED0E02FA05F334
:1006E000CE1000F1200555F826504E07F70E0F26C4
:1006F000BE40B543CF1000F1200646F82750CE107B
:1007000000F1200555F8265045EA0304CE1000F10B
:10071000200545F82640F0BD0000024000040240DC
:1007200000080240000C0240001002400014024089
:1007300000180240001C0240002002400024024039
:10074000002802400E49086070470D494860704714
:100750000B49886070474AF6AA200949086070472B
:100760004CF6CC4006490860704701460020044A18
:10077000D2680A400AB1012000E000207047000062
:1007800000300040F948006840F00100F749086077
:100790000020F64908310860F4480068F449084030
:1007A000F2490860F348091D0860F348EF498431B5
:1007B0000860F0481038091D0860EC48006820F413
:1007C0008020EA4908600020E8490C310860E749C8
:1007D0008C31086070470021E44A921C1170114668
:1007E0000870704710B501460022002300204A110E
:1007F000012A02D1DD4C236808E0022A03D1DB4C38
:100800007034236802E0D94C7434236801F01F026D
:10081000012494401C400CB1012000E0002010BDD8
:1008200038B5002000900024002500BF3120FFF7DC
:10083000D9FF05460098401C00900098B0F5A04FE5
:1008400001D0002DF2D03120FFF7CCFF08B10124F8
:1008500000E00024204638BD01460020C34A10684D
:1008600020F0F80040EAC10010607047C3490860FA
:1008700070470021BD4A703211701170012802D0FA
:1008800004280AD104E00121B84A7032117005E051
:100890000521B64A7032117000E000BF00BF7047FA
:1008A000B7490860704770B5049C41EA821501267B
:1008B000C6EB530645EA0645054345EA0465AB4EDB
:1008C000361D356070BDAD4908667047820142EA49
:1008D0000172A64B84331A607047A8498866704736
:1008E00010B5830143EA016343EA02739F4C8834E5
:1008F000236010BDA14908677047A049C8647047CC
:1009000002460020994B0833186820F0EC6042EA58
:1009100001031843954B08331860704702460020C6
:10092000924B0833186820F0784042EA01031843DC
:100930008E4B083318607047014600208B4A0832FE
:10094000106820F0030008431060704787480830A3
:10095000006800F00C00704701460020834A08320E
:10096000106820F0F0000843106070470146002036
:100970007E4A0832106820F4E05008431060704747
:1009800001460020794A0832106820F4604040EAAD
:10099000C10010607047F0B500210022002402253C
:1009A00000260223714F08373F6807F00C0121B180
:1009B000042905D0082937D105E0724F076036E0D9
:1009C000714F076033E0694F3F1D3F68C7F38056A2
:1009D000664F3F1D3F6807F03F036EB16A4FB7FB9C
:1009E000F3F7DFF888C10CF1040CDCF800C0CCF39D
:1009F000881C07FB0CF40CE0624FB7FBF3F7DFF841
:100A00006CC10CF1040CDCF800C0CCF3881C07FBB3
:100A10000CF4564F3F1D3F68C7F301477F1C7D0014
:100A2000B4FBF5F7076002E0564F076000BF00BF58
:100A30004E4F08373F6807F0F0010909534F7A5CC1
:100A40000768D7404760494F08373F6807F4E051CF
:100A5000890A4E4F7A5C4768D7408760434F083712
:100A60003F6807F46041490B484F7A5C4768D740BC
:100A7000C760F0BD002100F44072B2F5407F0AD19A
:100A80003A4A0832116821F4F811414A02401143F0
:100A9000364A08321160354A70321268C0F30B03CF
:100AA0001A43324B70331A60704735494439086035
:100AB00070473349403908607047364908607047CD
:100AC00001460020294A8C32106820F01F004A1E7F
:100AD0001043264A8C321060704701460020234A9A
:100AE0008C32106820F4F8504A1E40EA02201F4A57
:100AF0008C3210607047014600201C4A8C3210680E
:100B000020F4401008431060704701460020174A47
:100B10008C32106820F44000084310607047014692
:100B20000020124A8C32106820F4403008431060D4
:100B3000704719490860704739B10C4A3032126861
:100B400002430A4B30331A6006E0084A303212681A
:100B50008243064B30331A607047F9B1034A34328E
:100B600012680243014B34331A601CE00038024023
:100B7000FFFFF6EA1030002400300020000047425A
:100B8000800E47420024F40000127A001400002076
:100B9000FFFCFF0F5C014742E01147428F4A126899
:100BA00082438E4B1A60704739B18C4A121D12680D
:100BB00002438A4B1B1D1A6006E0884A121D126808
:100BC0008243864B1B1D1A60704739B1834A0C3231
:100BD00012680243814B0C331A6006E07F4A0C32E4
:100BE000126882437D4B0C331A60704739B17B4ADF
:100BF000103212680243794B10331A6006E0774ACC
:100C0000103212688243754B10331A60704739B145
:100C1000724A243A12680243704B243B1A6006E081
:100C20006E4A243A126882436C4B243B1A60704728
:100C300039B16A4A203A12680243684B203B1A6075
:100C400006E0664A203A12688243644B203B1A60F1
:100C5000704739B1614A1C3A126802435F4B1C3B32
:100C60001A6006E05D4A1C3A126882435B4B1C3BEB
:100C70001A60704739B1594A143A12680243574B07
:100C8000143B1A6006E0554A143A12688243534BEB
:100C9000143B1A60704739B1504A103A1268024347
:100CA0004E4B103B1A6006E04C4A103A12688243E1
:100CB0004A4B103B1A60704739B1484A1C321268DF
:100CC0000243464B1C331A6006E0444A1C32126849
:100CD0008243424B1C331A60704739B13F4A20327D
:100CE000126802433D4B20331A6006E03B4A203233
:100CF00012688243394B20331A60704739B1374A42
:100D0000243212680243354B24331A6006E0334A1A
:100D1000243212688243314B24331A60704739B150
:100D20002E4A2C32126802432C4B2C331A6006E0F8
:100D30002A4A2C3212688243284B2C331A6070479F
:100D400039B1264A303212680243244B30331A60DC
:100D500006E0224A303212688243204B30331A6058
:100D60007047012808D11D493C31096841F008014C
:100D70001A4A3C32116007E018493C31096821F0F9
:100D80000801164A3C321160704739B1134A273ABC
:100D900012780243114B273B1A7006E00F4A273A9C
:100DA000127882430D4B273B1A7070470B48403036
:100DB000006840F080700949403108607047014682
:100DC0000020064A283A12680A400AB1012000E0D1
:100DD00000207047014926390870704734380240B6
:100DE00010B50446FE48844208D101210846FFF7A9
:100DF00052FF00210120FFF74EFF9DE0B4F1804F2C
:100E000008D101210846FFF735FF00210120FFF737
:100E100031FF91E0F348844208D101210220FFF71D
:100E200029FF00210220FFF725FF85E0EE488442DC
:100E300008D101210420FFF71DFF00210420FFF746
:100E400019FF79E0E948844208D101210820FFF721
:100E500011FF00210820FFF70DFF6DE0E4488442F8
:100E600008D101211020FFF705FF00211020FFF716
:100E700001FF61E0DF48844208D101212020FFF713
:100E8000F9FE00212020FFF7F5FE55E0DA48844204
:100E900008D101210220FFF7FEFE00210220FFF70A
:100EA000FAFE49E0D548844209D101210804FFF740
:100EB000F2FE00214FF48030FFF7EDFE3CE0D04819
:100EC000844209D101214804FFF7E5FE00214FF4D7
:100ED0000030FFF7E0FE2FE0CA48844209D101212B
:100EE0008804FFF7D8FE00214FF48020FFF7D3FEDF
:100EF00022E0C548844208D101214020FFF7BAFE14
:100F000000214020FFF7B6FE16E0C048844208D119
:100F100001218020FFF7AEFE00218020FFF7AAFE0E
:100F20000AE0BB48844207D101218015FFF7A2FEE9
:100F30000021A015FFF79EFE10BD00220288A84BDD
:100F400098420ED0AC4B98420BD0B0F1804F08D0F5
:100F5000A44B984205D0A44B984202D0A34B984290
:100F600004D14FF68F731A404B881A43A04B984216
:100F700007D0A04B984204D04FF6FF431A400B898C
:100F80001A4302804B68C3620B880385944B9842D6
:100F900002D0994B984201D18B7A03860123838238
:100FA00070474FF0FF314160002101800181418095
:100FB000817270470185828270470A46002101884C
:100FC0004FF68F731940114301807047416270479B
:100FD000C16270470146486A70470146088D7047F4
:100FE00021B1028842F00202028004E002884FF63A
:100FF000FD731A400280704721B1028842F004025A
:10100000028004E002884FF6FB731A4002807047AA
:1010100021B1028842F08002028004E002884FF68B
:101020007F731A400280704702884FF6F7731A40A8
:10103000028002880A430280704702884FF6FF430D
:101040001A40028002880A430280704721B1028858
:1010500042F00102028004E002884FF6FE731A405B
:101060000280704770B5002400220023058C4FF6E3
:10107000FE7635400584028C8388048B4FF68F758D
:101080002C40B51E2C400D882C43751E2A408D899E
:101090002A434D882A43524DA84202D0564DA842B9
:1010A00013D14FF6F7752A40CD892A434FF6FB75C9
:1010B0002A408D882A434FF6FF652B404FF6FF5597
:1010C0002B400D8A2B434D8A2B43838004838D68EC
:1010D0004563028470BD70B5002400220023058C96
:1010E0004FF6EF7635400584028C8388048B48F6F2
:1010F000FF752C404FF6FF452C400D884FF6FF76CC
:1011000006EA05252C434FF6DF752A408D8906EA4D
:1011100005152A434D8806EA05152A43304DA84295
:1011200002D0354DA8421DD14FF67F752A40CD899A
:101130004FF6FF7606EA05152A434FF6BF752A409B
:101140008D8806EA05152A434FF6FF352B404FF2EE
:10115000FF752B400D8A06EA85052B434D8A06EA6A
:1011600085052B43838004838D688563028470BD6D
:1011700070B5002400220023058C4FF6FF66354031
:101180000584028C8388848B4FF68F752C404FF634
:10119000FC752C400D882C434FF6FF552A408D8955
:1011A0004FF6FF7606EA05252A434D8806EA05250F
:1011B0002A430B4DA84202D00F4DA84238D14FF21E
:1011C000FF752A40CD894FF6FF7606EA05252A43AA
:1011D0004FF6FF352A408D8806EA05252A4319E097
:1011E000000001400004004000080040000C0040E6
:1011F0000010004000140040000401400040014085
:10120000004401400048014000180040001C00401C
:10121000002000404EF6FF752B404DF6FF752B4029
:101220000D8A06EA05152B434D8A06EA05152B4360
:10123000838084838D68C563028470BD70B500228D
:1012400000230024058C4EF6FF7635400584038C80
:101250008488828B48F6FF752A404FF6FF452A4066
:101260000D884FF6FF7606EA05252A434DF6FF75F1
:101270002B408D8906EA05352B434D8806EA053556
:101280002B43FE4DA84202D0FD4DA84208D14BF69B
:10129000FF752C400D8A4FF6FF7606EA85152C4324
:1012A000848082838D680564038470BD0021018081
:1012B0004180818081608181C1810182418270474A
:1012C00070B50346002000241846183001258D40D3
:1012D000ACB21D8CA5431D8409B108290AD100EBCD
:1012E000610005684FF68F76354005600568154347
:1012F00005600FE00D1FC5F34E052844056848F64C
:10130000FF763540056005684FF6FF7606EA02264F
:101310003543056070BD4163704781637047C163A9
:101320007047016470470A460021018B4FF68F73A6
:1013300019401143018370470A460021018B48F68A
:10134000FF7319404FF6FF7303EA02231943018329
:1013500070470A460021818B4FF68F731940114365
:10136000818370470A460021818B48F6FF7319403C
:101370004FF6FF7303EA02231943818370470A463D
:101380000021018B4FF6F773194011430183704719
:101390000A460021018B4FF2FF7319404FF6FF738D
:1013A00003EA02231943018370470A460021818B17
:1013B0004FF6F77319401143818370470A460021A5
:1013C000818B4FF2FF7319404FF6FF7303EA02233C
:1013D0001943818370470A460021018B4FF6FB7346
:1013E00019401143018370470A460021018B4FF6D3
:1013F000FF3319404FF6FF7303EA022319430183B9
:1014000070470A460021818B4FF6FB731940114348
:10141000818370470A460021818B4FF6FF331940C4
:101420004FF6FF7303EA02231943818370470A468C
:101430000021018B4FF67F731940114301837047E0
:101440000A460021018BC1F30E014FF6FF7303EA38
:1014500002231943018370470A460021818B4FF60E
:101460007F7319401143818370470A460021818BA5
:10147000C1F30E014FF6FF7303EA02231943818380
:1014800070470A460021018C4FF6FD731940114345
:10149000018470470A460021018C4FF6F77319400A
:1014A0001143018470470A460021018C4FF6DF7317
:1014B00019404FF6FF7303EA021319430184704782
:1014C0000A460021018C4FF67F7319404FF6FF73D7
:1014D00003EA02131943018470470A460021018C74
:1014E0004FF6FF5319404FF6FF7303EA02231943E7
:1014F000018470470A460021018C4FF2FF731940A6
:101500004FF6FF7303EA02231943018470470A462A
:101510000021018C4DF6FF7319404FF6FF7303EA6B
:10152000023319430184704730B5002301248C40F5
:10153000A3B2048C9C430484048C02FA01F5ADB27E
:101540002C43048430BD30B5002304248C40A3B266
:10155000048C9C430484048C02FA01F5ADB22C4344
:10156000048430BD828B4FF2FF331A408283828B1A
:101570004FF6FF7303EA01231A4382837047F0B5E5
:101580000C461546002100220026078C4EF6FF7CF3
:1015900007EA0C070784818B028C4FF6FF7707EA76
:1015A000043640F6FF4739404FF6FF7707EA052734
:1015B00039434FF6FF7707EA0337394345F6FF779C
:1015C0003A4046F480573A4381830284F0BD828BCF
:1015D0004FF6F3731A408283828B0A4382837047EB
:1015E000F0B50C461546002100220026078C4FF668
:1015F000FF6C07EA0C070784818B028C4FF6FF779C
:1016000007EA04264FF60C7739404FF6FF7707EAD2
:1016100003172F4339434FF2FF573A4046F4807780
:101620003A4381830284F0BD028B4FF2FF331A40AC
:101630000283028B4FF6FF7303EA01231A430283EE
:101640007047F0B50C461546002100220026078C95
:101650004FF6EF7C07EA0C070784018B028C4FF6EC
:10166000FF7707EA041640F6FF4739404FF6FF7749
:1016700007EA033739434FF6FF7703E000000140E4
:101680000004014007EA052739434FF65F773A40E7
:1016900046F010073A4301830284F0BD028B4FF6F7
:1016A000F3731A400283028B0A4302837047F0B53A
:1016B0000C46154600210022068C4FF6FE773E4070
:1016C0000684018B028C4FF60C7631407E1C06EAB4
:1016D00003162E4331434FF6F576324044F00106AF
:1016E000324301830284F0BD70B505460C46208864
:1016F00050B92389A28861882846FFF7D8FFE1887E
:101700002846FFF7CBFF25E0208804280AD123894B
:10171000A28861882846FFF794FFE1882846FFF7F2
:1017200083FF17E0208808280AD12389A2886188CE
:101730002846FFF755FFE1882846FFF748FF09E0F4
:101740002389A28861882846FFF719FFE188284687
:10175000FFF708FF70BD00210180418001218180D9
:101760000021C180018170472DE9F04105460C46FA
:1017700000260127608808B9022600E00026A0881C
:10178000012801D1022700E001272088A0B9238980
:10179000A28861882846FFF78AFFE1882846FFF77C
:1017A0007DFF23893A4631462846FFF74AFFE18804
:1017B0002846FFF739FF13E02389A288618828466D
:1017C000FFF73FFFE1882846FFF72EFF23893A46BF
:1017D00031462846FFF76BFFE1882846FFF75EFF9A
:1017E000BDE8F0810146486B70470146886B704741
:1017F0000146C86B70470146086C70470A884B88E1
:101800001A438B881A43CB881A430B891A434B8996
:101810001A438B891A43A0F84420704700210180A5
:1018200041808180C180018141818181704731B1D6
:10183000B0F8442042F40042A0F8442005E0B0F89B
:101840004420C2F30E02A0F84420704721B18288E0
:1018500042F00402828004E082884FF6FB731A4053
:101860008280704721B1828842F00102828004E0C8
:1018700082884FF6FE731A40828070471AB18389BE
:101880000B43838102E083898B438381704781828C
:10189000704702460020138A0B400BB1012000E084
:1018A00000207047CA430282704730B502460020CC
:1018B00000230024158A05EA0103958905EA01043D
:1018C00013B10CB1012000E0002030BDCA430282F8
:1018D000704741EA0203A0F8483070471AB1838983
:1018E0000B43838102E083898B438381704721B15D
:1018F000828842F00802828004E082884FF6F77303
:101900001A408280704701894FF6F87211400181B8
:1019100070470A46002101894FF68F731940114321
:101920000181704730B504460D4629462046FFF731
:10193000F0FF208940F00700208130BD2DE9F04103
:1019400004460D4616461F46602D06D13B46012231
:1019500031462046FFF775FE05E03B460122314641
:101960002046FFF7A4FE29462046FFF7D2FF208934
:1019700040F007002081BDE8F08130B50C46002121
:101980000189C9B24FF6FF7505EA032515432543C2
:101990002943018130BD2DE9F04105460E46174629
:1019A0009846002443463A4631462846FFF7E5FF6D
:1019B0002C894FF6F870044044F007044FF68F70FE
:1019C000044044F070042C81BDE8F081F0B5044679
:1019D0000D4616461F463B46324629462046FFF72F
:1019E000CCFF208940F480402081F0BD82884FF6F2
:1019F0008F731A40828082880A43828070470289EE
:101A00004FF6F8731A40028102890A430281704737
:101A100002894FF67F731A40028102890A430281CC
:101A20007047F0B50C4615461E46002100220023E3
:101A30000189028B038C4FF6F877394021434FF62A
:101A4000FC473A4040F201173A434FF6DD773B40FE
:101A50004FF6FF7707EA06172F433B4301810283C6
:101A60000384F0BD21B1828842F08002828004E0CC
:101A700082884FF67F731A4082807047A0F850101A
:101A80007047000010B50446FA48844208D101218D
:101A90001020FFF700F900211020FFF7FCF857E0B5
:101AA000F548844209D101214804FFF7E3F80021F9
:101AB0004FF40030FFF7DEF84AE0F048844209D1E5
:101AC00001218804FFF7D6F800214FF48020FFF7AA
:101AD000D1F83DE0EA48844209D10121C804FFF76A
:101AE000C9F800214FF40020FFF7C4F830E0E548C2
:101AF000844209D101210805FFF7BCF800214FF409
:101B00008010FFF7B7F823E0DF48844208D10121B5
:101B10002020FFF7C0F800212020FFF7BCF817E0D5
:101B2000DA48844209D101218807FFF7A3F8002190
:101B30004FF08040FFF79EF80AE0D548844207D175
:101B400001214005FFF796F800216005FFF792F8A4
:101B500010BD2DE9FF4705460E460024A14600BFF3
:101B6000A046B08900B100BF2C8A24F44054F0880C
:101B700004432C82AC8941F20C608443B0883189E3
:101B80000843718908430443AC81AC8A24F440744F
:101B9000B0890443AC826846FEF7FDFEB548854235
:101BA00002D0B948854202D1DDF80C9001E0DDF8A1
:101BB0000890A88900F4004040B109EBC90000EB8F
:101BC000091031684900B0FBF1F707E009EBC900E3
:101BD00000EB091031688900B0FBF1F76420B7FB16
:101BE000F0F004012009642101FB1078A88900F4B9
:101BF000004040B1322000EBC800B0FBF1F000F033
:101C00000700044308E0322000EB08106421B0FB19
:101C1000F1F000F00F0004432C81BDE8FF874FF482
:101C20001651016000218180C18001810C21418118
:101C300000218181704710B502460020108A20F4EF
:101C400070600B884C8823438C882343CC882343C3
:101C50001843108210BD0021018041808180C18025
:101C6000704721B1828942F40052828104E0828966
:101C70004DF6FF731A4082817047028B02F47F4257
:101C80000283028B0A430283704721B1828942F4A6
:101C90000042828103E08289C2F30E028281704792
:101CA00021B1828A42F40062828204E0828A4FF289
:101CB000FF731A4082827047C1F308028280704726
:101CC00001468888C0F308007047028A4FF6F07317
:101CD0001A400282028A0A430282704721B1828935
:101CE00042F00202828104E082894FF6FD731A40BD
:101CF0008281704782894FF2FF731A408281828904
:101D00000A4382817047028A4FF6DF731A400282CB
:101D1000028A0A430282704721B1028A42F4804259
:101D2000028204E0028A4BF6FF731A400282704777
:101D3000818941F001018181704721B1828A42F09D
:101D40000802828204E0828A4FF6F7731A40828288
:101D50007047028BD2B20283028B42EA01220283D5
:101D6000704721B1828A42F02002828204E0828A96
:101D70004FF6DF731A408282704721B1828A42F0A7
:101D80001002828204E0828A4FF6EF731A40828248
:101D90007047828A4FF6FB731A408282828A0A4316
:101DA0008282704721B1828A42F00202828204E07C
:101DB000828A4FF6FD731A40828270471AB1838A75
:101DC0000B43838202E0838A8B4383827047F0B5A2
:101DD0000346002400260025002040F66A17B94279
:101DE00000D100BF1846C1F3421401F01F060127BD
:101DF00007FA06F5012C01D10C3004E0022C01D1C8
:101E0000103000E014301AB107682F43076002E079
:101E10000768AF430760F0BD02460020B1F5007FC0
:101E200000D100BF13880B400BB1012000E000205F
:101E3000704701F40072B2F5007F00D100BFCA43C1
:101E40000280704770B50246002400230025002060
:101E500040F66A16B14200D100BFC1F3421501F04D
:101E60001F03012606FA03F3012D13D1968933408F
:101E700017E000000010014000440040004800400E
:101E8000004C004000500040001401400078004029
:101E9000007C0040022D02D1168A334001E0968A70
:101EA00033400C12012606FA04F41688344013B1AC
:101EB0000CB1012000E0002070BD10B5002200230D
:101EC00040F66A14A14200D100BF0A1201249440D6
:101ED000A3B2DC43048010BD10B535A002F074FE3F
:101EE000032001F0B1FD10BD10B539A002F06CFE69
:101EF000002001F0A9FD10BD10B53DA002F064FE68
:101F0000012001F0A1FD10BD10B540A002F05CFE63
:101F1000022001F099FD10BD00B589B0AFF2370085
:101F2000AFF24B010823414ACDE90010102103A86C
:101F300000F0D3F9152203A93D4802F0B6FDAFF237
:101F40003700AFF24B010423384ACDE900101021CD
:101F500003A800F0C2F9152203A93548153002F094
:101F6000A4FD33483349C1F80100084600F0DEF90A
:101F700009B000BDFEF792F900F092FA00F03AFBCA
:101F800001F04BFDFFF7C8FF00F065FB00F0D1FB4F
:101F9000022000F0B9FA28A002F016FE06E000F0D8
:101FA000C9FA00F026FB294801F0D0FEF7E700004F
:101FB0004B455931205052455353202C50726F6479
:101FC000756374696F6E204D6F64650A00000000D0
:101FD0004B455931205052455353204C4F4E4720CA
:101FE0002C576966692052657365740A0000000009
:101FF0004B455932205052455353202C536F667431
:10200000204150206D6F64650A0000004B45593235
:10201000205052455353204C4F4E47202C4169725B
:102020004C696E6B206D6F64650A00000010024001
:102030004C000020240000204D435520496E697457
:102040002053756363657373200A000076000020D7
:10205000704700BFFEE700BFFEE700BFFEE700BF1E
:10206000FEE77047704770477047000070B505463F
:102070000024002600BF22E0D5F80120C4EBC403F1
:1020800003EB43031A44B2F8092091B2D5F80120BA
:10209000C4EBC40303EB43031A44D2F80500FEF774
:1020A000EFFA50B9D5F80100C4EBC40101EB4101CE
:1020B000415C01208840304386B2601CC4B2BC48F9
:1020C0000078A042D8DC304670BD70B505460024CB
:1020D0000026B8480078401CB649087008460078C9
:1020E0001E2804DB002008700120B3490870B248A4
:1020F0000078012856D10020AF4908702846FFF724
:10210000B5FF0446AD48007830B101280BD0022855
:1021100019D0032845D13CE024B1A948048001200E
:10212000A64908703DE0A6480088844207D10220F5
:10213000A2490870A248008840F4805602E00020BE
:102140009E4908702DE09E48008884420AD00020F5
:102150009A4908709B4908809948008840F40056C5
:10216000304670BD96480088844211D19548008859
:10217000401C9449088008460088642808DB002039
:10218000088003208D49087044F400463046E8E793
:1021900007E08B480088844202D0002087490870FD
:1021A00000BF00BF0020DCE770B505460024002614
:1021B0002846FFF78AFF064606B970BD06F40050B0
:1021C00028B3002420E0D5F80100C4EBC40101EBE2
:1021D0004101415C01208840304098B1D5F80100B0
:1021E000C4EBC40101EB41010844D0F80D0048B133
:1021F000D5F80110C4EBC40202EB42021144D1F83D
:102200000D008047601CC4B22878A042DBDC06F4D5
:10221000004028B3002420E0D5F80100C4EBC4013D
:1022200001EB4101415C01208840304098B1D5F874
:102230000100C4EBC40101EB41010844D0F81100D6
:1022400048B1D5F80110C4EBC40202EB42021144BC
:10225000D1F811008047601CC4B22878A042DBDCB2
:1022600000BFAAE710B501218807FFF71EFB30B1B8
:1022700001218807FFF72AFB4D48FFF795FF10BDA6
:102280007FB5092542F2CF0401210846FEF79DFCE7
:102290000295ADF804400020ADF80C00ADF8060042
:1022A00001A9A807FEF749FE012211469007FFF792
:1022B000E5FA1C208DF8000000208DF801000320B5
:1022C0008DF8020001208DF803006846FEF785F8BE
:1022D00001218807FEF7BAFE7FBD2DE9F04387B0E4
:1022E00007460C4615461E46DDE90E89CDF8054029
:1022F000CDF80950CDF80D6033480078401C40B24D
:1023000031490870C0B28DF80400CDF81590CDF8B1
:1023100011802E480078401C2C490870152201A914
:10232000384602F0C2FB07B0BDE8F0837CB5044636
:10233000002504B97CBD25480078207020780C2841
:1023400001DD0C20207000252BE054F8011FC5EBA7
:10235000C50202EB42021144D1F801000121FEF74F
:10236000EBFB03208DF8050000208DF80400012010
:102370008DF807002068C5EBC50101EB4101084459
:10238000D0F80900009054F80119C5EBC50202EB22
:1023900042021144D1F805006946FEF70FF9681CA6
:1023A000C5B22078A842D0DCFFF76AFF00BFC1E7C2
:1023B000240000202A0000202C0000202D000020F6
:1023C000300000202E000020320000202B000020D2
:1023D0001CB501210846FEF7AFFB01211020FEF7D6
:1023E00005FC072209214648FEF773F907220A2156
:1023F0004348FEF76EF94FF4C060009002208DF85C
:1024000004008DF8050000208DF8060001208DF8ED
:10241000070069463A48FEF7D1F81CBD1FB54FF4D6
:10242000E13000900020ADF80400ADF80600ADF8F2
:102430000800ADF80C000C20ADF80A0069463148E0
:10244000FFF787FB012240F225512E48FFF7BFFC22
:1024500001212C48FFF705FC40212A48FFF7E9FC41
:102460001FBD08B525208DF8000000208DF8010063
:1024700004208DF8020001208DF803006846FDF766
:10248000ACFF08BD10B5044621461E48FFF714FCFA
:1024900000BF80211B48FFF7BFFC0028F9D010BD0A
:1024A00010B5FFF795FFFFF7B9FFFFF7DAFF10BD93
:1024B00070B504460D46E1B21248FFF7FDFB00BFC0
:1024C00080211048FFF7A8FC0028F9D0204670BDF5
:1024D00010B540F225510B48FFF7B4FC70B1094824
:1024E000FFF7EEFB044621460648FFF7E5FB00BF79
:1024F00080210448FFF790FC0028F9D010BD0000AF
:10250000000002400010014070B50446042540F26E
:102510007120604386B245F25550FEF713F9284604
:10252000FEF713F93046FEF713F9FEF714F9FEF73C
:1025300017F970BD4AF6AA200149086070470000EB
:10254000003000402DE9FF5F06460D469346002708
:10255000A846A9462C46AA4606B125B94FF0FF3039
:1025600004B0BDE8F09F00273EE0701CC05D11285C
:1025700036D2DFE800F0090A0B35350C0D0E0F35A9
:10258000353535101A2916002BE02AE029E028E01D
:1025900027E026E025E099F8001091A002F014FB56
:1025A0001FE092A002F010FB1BE0A1796279237971
:1025B000A068CDE90032CDE90210E378A278218845
:1025C0008FA002F001FB0CE098A002F0FDFA9CA0A5
:1025D00002F0FAFA9AF800109DA002F0F5FA00E075
:1025E00000BF00BF781CC7B23078B842BDDC002005
:1025F000B6E770479B480021016041600181704748
:1026000099480068401C98490860704796480068DF
:102610007047012080F3138800BF00BFBFF34F8FC6
:102620009248006800F4E06091490843001D8F491A
:102630000860BFF34F8F00BF00BFFEE710B5012158
:102640008C48FFF732F928B101218A48FFF73EF99B
:10265000FFF7D6FF10BD7FB5092542F2CF04012157
:102660000220FEF7B2FA0295ADF804400020ADF862
:102670000C00ADF8060001A97E48FEF75EFC0122C1
:1026800011467C48FFF7FAF81D208DF80000002065
:102690008DF8010002208DF8020001208DF8030062
:1026A0006846FDF79AFE01217248FEF7CFFC7FBD18
:1026B00008B50020009040F225516F48FFF7C2FB9B
:1026C00068B140F225516C48FFF7F7FB6A48FFF705
:1026D000F7FAC0B200900121684600F0D1F808BDB9
:1026E00070B505460E4600240DB9601E70BD00246D
:1026F0001BE0295D6048FFF7DFFA00BF80215E48DC
:10270000FFF78AFB0028F9D0022C0DD3285DFF28A3
:102710000AD155215848FFF7CFFA00BF802156480B
:10272000FFF77AFB0028F9D0641CB442E1D33046AD
:10273000DCE700B587B001210220FEF7FDF9012199
:102740008804FEF742FA07220A214C48FDF7C1FF30
:1027500007220B214948FDF7BCFF4FF4406005906C
:1027600002208DF818008DF8190000208DF81A004D
:1027700001208DF81B0005A94048FDF71FFF4FF40D
:10278000165001900020ADF80800ADF80A00ADF831
:102790000C00ADF810000C20ADF80E0001A9364871
:1027A000FFF7D7F9012240F225513348FFF70FFB1D
:1027B00001213148FFF755FA40212F48FFF739FB37
:1027C00027208DF8000000208DF8010001208DF8F1
:1027D00002008DF803006846FDF7FFFD07B000BD5D
:1027E000525353492025640A000000005452414EC0
:1027F00053504152454E545F44415441200A000019
:10280000574946495F4E5450203A205B25642D2598
:10281000642D256420253032643A253032643A250F
:102820003032645D5B25645D200A00004D4F4455E5
:102830004C4520494E464F202E2E2E0A0000000007
:10284000574946204D4F44554C45202E2E2E0A0008
:102850006D6F64756C6554797065203A205B2564F2
:102860005D200A0076000020340000200CED00E01E
:102870000000FA0500040040004800400004024047
:1028800070B504460D46002624B9EFA002F09CF96D
:10289000701E70BD2A462146F34802F0B3F8064682
:1028A000AE4205D0F1A002F08FF94FF0FF30F0E713
:1028B0003046EEE710B504462CB9F3A002F084F9D7
:1028C0004FF0FF3010BD002020606060FF202070BE
:1028D00060700020F6E770B504460D462CB9F5A0EF
:1028E00002F072F94FF0FF3070BD1F21F74802F07F
:1028F000F5F82A462146F548801C02F0D6F8F34840
:102900003B38A0F85450012180F83C10FFF77EFEC0
:10291000EE493B39C1F856000020E5E770B50446A2
:102920000D46002604B12DB9E9A002F04DF94FF093
:10293000FF3070BD287A217A884203D0EEA002F0E1
:1029400043F90126687A617A884203D0F2A002F046
:102950003BF9012628682168884210D0FFF756FE0F
:10296000F3490968401A41F27071884207D3F1A017
:1029700002F02AF9FFF74AFEED490860012668686F
:102980006168884210D0FFF741FEE9490968401AA2
:1029900041F27071884207D3EDA002F015F9FFF7FC
:1029A00035FEE349086001263046C2E738B50546E2
:1029B0000C4605B12CB9ECA002F006F94FF0FF303F
:1029C00038BD0020A070287A234601220021009003
:1029D000022001F03AFF687A234601221146009056
:1029E000022001F032FF0121A01C01F0D7FD2A686E
:1029F0000021012001F0EBFD20706A680021012018
:102A000001F0E5FD60700020DAE72DE9F04780462F
:102A10000C4617461D46089E94F800900CB105B16F
:102A200036B9DDA002F0D0F84FF0FF30BDE8F087F6
:102A3000B8F1000F4BD11221A4481F3002F04EF81C
:102A4000B9F1010F06D0B9F1020F07D0B9F1050FA6
:102A50003BD11AE000250020306037E09B49673108
:102A600001F10D00FFF7A2FF58B9984867300188BF
:102A7000A5F801108078E8700320287004203060E9
:102A800002E04FF0FF30D1E720E07A1E611C8F4852
:102A9000233802F00AF8781E8C493B39C1F82F0020
:102AA00010218A483B3890F85A205B3081545B38BB
:102AB00090F85A00401C85493B3981F85A000320A0
:102AC000087000250020306000E000BF00BF00203B
:102AD000ACE72DE9F04F8DB006468B461746994678
:102AE00000200C908246804600256C46BBF1000F0A
:102AF00006D1B5A002F068F8681E0DB0BDE8F08FF1
:102B0000B9F1010F06D196F8088008F106003844A3
:102B100085B201E0781D85B22B4642463946B0A009
:102B200002F052F8FF2004F8010B04F8010B281200
:102B300004F8010B04F8015B3079401C04F8010B28
:102B4000707904F8010B002004F8010B04F8019BD4
:102B50004FF0080AB9F1010F0CD104F8018B0AF10A
:102B6000010A0DEB0A00424606F1090101F09DFF42
:102B7000C24444442FB10DEB0A003A46594601F0D5
:102B800094FF291D684601F03FFB0146E81C0DF843
:102B90000010291D6846FFF7A3FD0C900C98002833
:102BA00006DA99A00C9902F00FF86FF00100A4E783
:102BB0000020A2E72DE9FF4105460E4617460024F6
:102BC00036B997A002F000F8601E04B0BDE8F081AD
:102BD0006846FFF76FFE05208DF804003B483B3840
:102BE00090F83310D0F83300401C384A3B3AC2F812
:102BF0003300C8B28DF805008DF80850092001F0A7
:102C000016FBADF802003A4631460DF1090001F01D
:102C10004CFF0D21684601F0F7FA8DF80C000D21EC
:102C20006846FFF75DFD0446002C06DA214686A0C3
:102C300001F0CAFF6FF00100C7E70D216846FFF7FA
:102C40004AFE2046C1E700004552523A2067697AA1
:102C500050757444617461206275662069732065E3
:102C60006D707479200A0000870100204552523AA5
:102C7000204661696C656420746F207262577269C6
:102C80007465200A000000004552523A2067697AB4
:102C900050726F746F636F6C48656164496E6974DC
:102CA000206865616420697320656D707479200AFD
:102CB000000000004552523A20646174612069733B
:102CC00020656D707479200A00000000BB000020B0
:102CD00067697A436865636B5265706F72742045EB
:102CE00072726F72202C20496C6C6567616C205089
:102CF0006172616D0A00000076616C756554656DE6
:102D0000706572747572655F414C4D204368616EE9
:102D10006765640A0000000076616C756568756D12
:102D20005F414C4D204368616E6765640A00000096
:102D30003800002076616C756554656D706572743D
:102D4000757265204368616E6765640A0000000063
:102D500076616C756548756D69646974792043683E
:102D6000616E6765640A000067697A446174615046
:102D70006F696E7473325265706F727444617461FE
:102D8000204572726F72202C20496C6C6567616CF3
:102D900020506172616D0A0067697A50726F746FBA
:102DA000636F6C49737375656450726F6365737399
:102DB000204572726F72202C20496C6C6567616CC3
:102DC00020506172616D0A005B4552525D202064A3
:102DD000617461204973204E756C6C200A000000FC
:102DE0006C656E203D202564202C20734469644C62
:102DF000656E203D202564202C646174615F6C65E4
:102E00006E203D2025640A00756172742077726916
:102E10007465206572726F72202564200A000000BC
:102E200067697A5265706F7274446174612045728B
:102E3000726F72202C20496C6C6567616C20506148
:102E400072616D0A000000004552523A20756172AD
:102E500074207772697465206572726F72202564C0
:102E6000200A000070B50446FFF7D0FB0546F7497D
:102E70002046FFF753FD012817D1F5A001F0A4FE6D
:102E8000F2490D392046FFF791FD28B90322EF4999
:102E90000D390420FFF78EFEEC48783821688167F1
:102EA0006168C1672189A0F88010EF48B5FBF0F197
:102EB00000FB1150E8B9ED480068A84219D0ECA019
:102EC00001F082FEE1490D392046FFF76FFD28B978
:102ED0000322DE490D390420FFF76CFEDB48783809
:102EE000216881676168C1672189A0F88010DF4887
:102EF000056070BD2DE9FE4F80460E4617464FF027
:102F0000000B002002908146824600253446009046
:102F1000B8F1000F01D006B137B9DBA001F054FEC3
:102F20004FF0FF30BDE8FE8F404601F0EFFC00F0AF
:102F3000FF0ABAF1000F02D14FF0FF30F2E74FF075
:102F400000095DE0012201A9404601F00AFD834627
:102F5000BBF1000F52D0D8480078FF281FD19DF850
:102F60000400FF281BD1D548007848B9FF20207005
:102F700060700220D24908800120D049087034E0F6
:102F8000CF480088042830DDCD480088A8422CD0E6
:102F9000FF20207060700220C949088025E0C648E3
:102FA0000078FF2803D19DF8040055281DD0C348A0
:102FB0000078012819D19DF80400C149098860549E
:102FC000BF480088401CBE49088008460088042885
:102FD0000BDD0094009C608801F029F9001D85B28A
:102FE000B7480088A84200D10CE09DF80400B2491F
:102FF0000870B4480078401CB249087009F1010912
:10300000D1459FDB00BFAE480088042823DDAC48D3
:103010000088A8421FD1AA480188204601F0F4F890
:103020000290A7480088401E215C029881420FD17F
:103030002A462146304601F038FD3D8000209F4958
:1030400008709F4908809F4908709B49087069E78C
:103050006FF0010066E7012064E710B500247B48AB
:10306000AF3890F83C0000B910BD97A001F0ACFD5E
:103070007648AF38B0F854103D30FFF731FB0446C6
:103080007248AF38B0F85400A04202D096A001F0C8
:103090009BFDFFF7BBFA6D49AF39C1F8560000BF81
:1030A000E2E770B50446694D723D34B9AFF2FC30C9
:1030B00001F08AFD4FF0FF3070BD2879401C217966
:1030C000884204D11F216148743801F007FD0020B7
:1030D000F2E73EB50446002524B989A001F074FD4D
:1030E000681E3EBD20680090606801909DF8040055
:1030F000401CC0B28DF80400052001F098F8ADF82E
:1031000002000921684601F07FF88DF808000921C6
:103110006846FFF7E5FA0546002D04DA2946AFF2C6
:10312000D82001F051FD2846DBE710B54748AF38FD
:1031300090F83C0001282CD14448AF3890F83B006F
:10314000022821DAFFF762FA4049AF39D1F8561068
:10315000401AC8281DD9FFF759FA04463B48AF3832
:1031600090F83B30D0F85620214670A001F02CFD9D
:10317000FFF773FF3548AF3890F83B00401C3349E8
:10318000AF3981F83B0004E01F213048743801F06A
:10319000A5FC10BD30B59DB0044600252CB96DA02E
:1031A00001F012FD681E1DB030BD6846FFF782FBBE
:1031B00002208DF8040060798DF8050071A103C923
:1031C000CDE9020172A103C9CDE9040173A103C9CC
:1031D000CDE9080174A103C9CDE90601202275A13A
:1031E0000AA801F062FC20227BA10DF1520001F03F
:1031F0005CFC0020CDF84A00CDF84E009DF851004F
:103200008DF851009DF8510040F002018DF85110E9
:10321000002001F00CF8ADF848006F2001F007F82D
:10322000ADF802007321684600F0EEFF8DF87200E1
:1032300073216846FFF754FA0546002D04DA294643
:10324000AFF2FC3001F0C0FC2846ACE72F010020B3
:103250006368616E6765642C207265706F7274209C
:10326000646174610A000000C02709003C0000206E
:10327000496E666F3A2036303053207265706F7237
:103280007420646174610A0067697A50726F746FA8
:10329000636F6C4765744F6E655061636B65742036
:1032A0004572726F72202C20496C6C6567616C20CE
:1032B000506172616D0A000044000020400000204F
:1032C00042000020450000205761726E696E673A27
:1032D0002074696D656F75742C20726573656E64FA
:1032E0002064617461200A004552523A207265736D
:1032F000656E642064617461206572726F720A0089
:103300004552523A2067697A50726F746F636F6CDE
:10331000436F6D6D6F6E41636B20646174612069F2
:103320007320656D707479200A0000005761726E19
:10333000696E673A67697A50726F746F636F6C5227
:103340006573656E64446174612025642025642082
:1033500025640A0067697A50726F746F636F6C47F7
:103360006574446576696365496E666F204572725F
:103370006F72202C20496C6C6567616C2050617203
:10338000616D0A00303030303030303400000000E1
:1033900030303030303030320000000030333033E5
:1033A00030303030000000003033303130313030D8
:1033B000000000003665356432643763636563621C
:1033C0003430333361356334353733663864323003
:1033D00038383166000000003232313161356638EC
:1033E000313531613465643239626439336664631E
:1033F000656566616532313000000000FEB5044647
:103400000E46002524B9F9A001F0DEFB681EFEBDC2
:103410006846FFF74FFA12208DF8040060798DF8A6
:103420000500062000F003FFADF802008DF80860EB
:103430000A21684600F0E8FE8DF809000A21684676
:10344000FFF74EF90546002D04DA2946AFF2086071
:1034500001F0BAFB2846DAE770B5044625462CB9D8
:10346000EDA001F0B1FB4FF0FF3070BDEF48A9684F
:103470000160E9684160298A0181A97C8172A0F11B
:10348000BA01B1F8BA0000F0D2FEE849BA39A1F8A1
:10349000BA00D1F8C20000F0D5FEE449BA39C1F84B
:1034A000C2000E21E148BA3890F87E207F30815466
:1034B0007F3890F87E00401CDC49BA3981F87E00E4
:1034C000042008700020D0E710B5FFF79FF80446ED
:1034D00000BFFFF79BF8001BB0F5167FF9D9FFF787
:1034E00098F810BD10B504462CB9D1A001F06CFBC2
:1034F0004FF0FF3010BD208900F099FE2081D848A0
:103500000078C0F38000217AC1F3800188425ED048
:10351000207AC0F3800000282DD0207A00F001002E
:1035200088B10021C148BA3890F86C206D308154C0
:103530006D3890F86C00401CBC49BA3981F86C00B9
:10354000C8A001F041FB207AC0F3400000283ED023
:103550000121B648BA3890F86C206D3081546D382E
:1035600090F86C00401CB149BA3981F86C00C5A0D4
:1035700001F02AFB2BE0207A00F0010088B1002145
:10358000AA48BA3890F86C206D3081546D3890F8A4
:103590006C00401CA549BA3981F86C00B1A001F05B
:1035A00013FB207AC0F3400088B102219F48BA384B
:1035B00090F86C206D3081546D3890F86C00401C90
:1035C0009A49BA3981F86C00B5A001F0FDFAA44817
:1035D0000078C0F3C000217AC1F3C001884230D026
:1035E000207AC1089E48007861F3C3009C490870A6
:1035F000207AC0F3C00090B103218C48BA3890F80B
:103600006C206D3081546D3890F86C00401C8749F7
:10361000BA3981F86C00A9A001F0D6FA11E00421B2
:103620008248BA3890F86C206D3081546D3890F82B
:103630006C00401C7D49BA3981F86C00A7A001F0EC
:10364000C3FA87480078C0F30010217AC1F3001153
:10365000884230D0207A01098148007861F3041053
:103660007F490870207AC0F3001090B105216F489F
:10367000BA3890F86C206D3081546D3890F86C0039
:10368000401C6A49BA3981F86C009CA001F09CFA90
:1036900011E006216548BA3890F86C206D308154ED
:1036A0006D3890F86C00401C6049BA3981F86C00A4
:1036B0009AA001F089FA6A480078C0F34010217A94
:1036C000C1F34011884230D0207A41096448007823
:1036D00061F3451062490870207AC0F3401090B140
:1036E00007215248BA3890F86C206D3081546D38FB
:1036F00090F86C00401C4D49BA3981F86C0090A0DC
:1037000001F062FA11E008214848BA3890F86C20BC
:103710006D3081546D3890F86C00401C4349BA39C3
:1037200081F86C008DA001F04FFA4D484078C0F34D
:10373000C001607AC0F3C000814230D0607AC10815
:103740004748407861F3C30045494870607AC0F348
:10375000C00090B10B213548BA3890F86C206D301C
:1037600081546D3890F86C00401C3049BA3981F8AA
:103770006C0082A001F028FA11E00C212B48BA3825
:1037800090F86C206D3081546D3890F86C00401CBE
:103790002649BA3981F86C007FA001F015FA30484B
:1037A0004078C0F30011607AC0F3001081421CD051
:1037B000607A01092A48407861F30410284948706A
:1037C000607AC0F3001078B109211848BA3890F82F
:1037D0006C206D3081546D3890F86C00401C13499A
:1037E000BA3981F86C00E7E0EAE0F9E067697A50FD
:1037F000726F746F636F6C4572726F72436D642089
:103800004572726F72202C20496C6C6567616C2068
:10381000506172616D0A00004552523A204E545078
:1038200020697320656D707479200A003A010020C8
:1038300067697A50726F746F636F6C4D6F64756CEB
:1038400065537461747573204572726F72202C20F9
:10385000496C6C6567616C20506172616D0A000093
:10386000460000204F6E426F617264696E673A20B5
:10387000536F66744150206F7220576562206D6FE0
:1038800064650A004F6E426F617264696E673A2028
:103890004169724C696E6B206D6F64650A000000AF
:1038A0004F6E426F617264696E673A20537461743F
:1038B000696F6E206D6F64650A0000005769466984
:1038C000207374617475733A20696E2062696E6446
:1038D000696E67206D6F64650A000000576946696C
:1038E000207374617475733A206F75742062696E09
:1038F00064696E67206D6F64650A000057694669E8
:10390000207374617475733A20636F6E6E656374AF
:10391000656420726F757465720A000057694669A4
:10392000207374617475733A20646973636F6E6E8B
:10393000656374656420726F757465720A000000B7
:1039400057694669207374617475733A20636F6EAA
:103950006E6563746564206D326D0A00576946694F
:10396000207374617475733A20646973636F6E6E4B
:103970006563746564206D326D0A0000576946699D
:10398000207374617475733A2061707020636F6E78
:103990006E6563740A00000057694669207374619C
:1039A0007475733A206E6F2061707020636F6E6E55
:1039B0006563740A00000000F9A001F005F90FE04A
:1039C0000A21FE4890F86C206D3081546D3890F8D3
:1039D0006C00401CF94981F86C00F9A001F0F4F882
:1039E0000D21F64890F86C206D3081546D3890F8B8
:1039F0006C00401CF14981F86C00607A00F007000F
:103A000081F8B900084690F8B910F4A001F0DCF88C
:103A10000220EA49087000206CE510B52E20F34919
:103A20000860F348C860084600F052FF18B9F1A0DA
:103A300001F0CAF802E0F4A001F0C6F840F2071164
:103A4000DE4801F04BF810BD30B587B005460024C4
:103A5000052D7DD2DFE805F003316193C10001A897
:103A6000FEF728FF0B208DF80800D44890F833109B
:103A7000D0F83300401CD14AC2F83300C8B28DF8E8
:103A80000900052000F0D3FBADF80600092101A8CC
:103A900000F0BAFB8DF80C00092101A8FEF720FE0A
:103AA0000446002C04DA2146AFF6644001F08CF89D
:103AB000092101A8FEF70FFFC1E004A8FEF7FAFEF6
:103AC00009208DF81400BD4890F83310D0F8330069
:103AD000401CBA4AC2F83300C8B28DF815008DF800
:103AE0001850062000F0A3FBADF812000A2104A82C
:103AF00000F08AFB8DF819000A2104A8FEF7F0FDFA
:103B00000446002C04DA2146AFF6C44001F05CF80C
:103B10000A2104A8FEF7DFFE91E004A8FEF7CAFE22
:103B200009208DF81400A54890F83310D0F8330020
:103B3000401CA24AC2F83300C8B28DF815008DF8B7
:103B40001850062000F073FBADF812000A2100E0C7
:103B500071E004A800F058FB8DF819000A2104A8B0
:103B6000FEF7BEFD0446002C04DA2146AFF62850CD
:103B700001F02AF80A2104A8FEF7ADFE5FE001A8D3
:103B8000FEF798FE13208DF808008C4890F833104B
:103B9000D0F83300401C894AC2F83300C8B28DF80F
:103BA0000900052000F043FBADF80600092101A83B
:103BB00000F02AFB8DF80C00092101A8FEF790FD0A
:103BC0000446002C04DA2146AFF6845000F0FCFFD6
:103BD000092101A8FEF77FFE31E001A8FEF76AFE89
:103BE00015208DF80800754890F83310D0F8330090
:103BF000401C724AC2F83300C8B28DF80900052093
:103C000000F015FBADF80600092101A800F0FCFA50
:103C10008DF80C00092101A8FEF762FD0446002C76
:103C200004DA2146AFF6E05000F0CEFF092101A8EA
:103C3000FEF751FE03E079A000F0C6FF00BF00BF11
:103C4000204607B030BD3EB500246846FEF732FE80
:103C500017208DF80400594890F83310D0F833003D
:103C6000401C564AC2F83300C8B28DF80500052042
:103C700000F0DDFAADF802000921684600F0C4FA50
:103C80008DF8080009216846FEF72AFD0446002C3D
:103C900003DA214667A000F097FF09216846FEF786
:103CA0001AFE3EBD3EB500246846FEF703FE212005
:103CB0008DF80400414890F83310D0F83300401CD0
:103CC0003E4AC2F83300C8B28DF8050000208DF8D6
:103CD0000800062000F0ABFAADF802000A216846A1
:103CE00000F092FA8DF809000A216846FEF7F8FC08
:103CF0000446002C03DA21464EA000F065FF0A219D
:103D00006846FEF7E8FD3EBD70B5044625462CB971
:103D100050A000F059FF4FF0FF3070BD412205F177
:103D200008012648C63000F0C0FE0F21234890F855
:103D3000902091308154913890F89000401C1F4998
:103D400081F89000052008700020E6E72DE9F04199
:103D500090B0054600260020039002900024804683
:103D6000002735B93FA000F02FFF601E10B0BDE85E
:103D7000F081FFF7DAF903AA1049491C1B48FFF745
:103D8000B9F80646002E08D140A000F01DFF0B4CEC
:103D9000641C20790D2801D082E001E1C4E000001C
:103DA00057694669207374617475733A20696E208F
:103DB00074657374206D6F64650A000080000020D4
:103DC00057694669207374617475733A206F75740E
:103DD0002074657374206D6F64650A0052535349F3
:103DE000206973202564200A00000000870100205C
:103DF0009701002072624372656174652053756398
:103E000063657373200A00007262437265617465B2
:103E1000204661696C64200A000000004552523A55
:103E2000204366674D6F6465206572726F72210A68
:103E3000000000004552525B4E54505D3A207561BF
:103E40007274207772697465206572726F722025B2
:103E500064200A004E545020697320656D70747997
:103E6000200A000047697A7769747348616E646C50
:103E700065204572726F72202C20496C6C656761F9
:103E80006C20506172616D0A00000000476574206B
:103E90004F6E65205061636B6574210A000000005D
:103EA0000EDC07283CD006DC012818D003281AD0E5
:103EB00006286CD13FE00A283ED00C2867D13CE0B0
:103EC00016283BD006DC0F283CD0112843D01428FC
:103ED0005DD141E0182846D0222858D14DE0204637
:103EE000FFF758F95BE0E279A1798EA000F06CFE53
:103EF00002A8009007F10900BDF80C301A1A8D488D
:103F0000C11904AB4046FEF780FD40B9E37904A92E
:103F10002046029AFEF7DDFD87A000F055FE3EE048
:103F20002046FFF7D6F83AE02046FFF7D2F82046C1
:103F3000FFF7D8FA33E000BF00BF00BF2046FFF70D
:103F4000B0F82CE02046FFF7C4F87EA000F03CFE5D
:103F5000FFF7BAFA23E022E02046FFF7A2F87EA09E
:103F600000F032FE1BE02046FFF79BF82046FFF7EB
:103F700073FA81A000F028FE11E02046FFF791F8C7
:103F80002046FFF7C1FE82A000F01EFE07E00221DE
:103F90002046FFF733FA85A000F016FE00BF0EE0C2
:103FA00016F1020F0BD1634C083C01212046FFF7AC
:103FB00025FA84A000F008FE6FF00100D6E65D4807
:103FC00009380078062850D2DFE800F04F031323A9
:103FD0002F3F00205749093908700A22A531A1F165
:103FE0004B00FEF7AFFA12215248513000F076FD37
:103FF0003CE000204F49093908700122B931A1F194
:104000004D00FEF79FFA12214A48633000F066FD2A
:104010002CE000204749093908700846D0F82F20C5
:1040200018315A30FEF78EFA20E000204149093954
:1040300008700C22BA31A1F13C00FEF783FA12217C
:104040003C48753000F04AFD10E00020394909393C
:1040500008704122C631A1F13600FEF773FA412102
:104060003448873000F03AFD00E000BF00BF28462A
:10407000FEF7F8FE002079E62DE9F04186B006460D
:104080000F464FF000086C46B81D85B23EB953A0EC
:1040900000F09AFD4FF0FF3006B0BDE8F081FF2040
:1040A00004F8010B04F8010B281204F8010B04F8C2
:1040B000015B052004F8010B1E48093890F8331005
:1040C000D0F83300401C1B4A093AC2F8330004F808
:1040D000011B002004F8010B04F8010B062004F872
:1040E000010B3A4631460DF1090000F0DEFC291DB6
:1040F000684600F089F80146E81C0DF80010291DFB
:104100006846FEF7EDFA8046B8F1000F03DA414643
:104110003C4800F059FD291D6846FEF7DCFB0020F5
:10412000BAE70000666C6167202578202578200AB0
:10413000000000008900002041636B44617461202D
:104140003A200A007265706F72743A4D43552072BE
:1041500065626F6F74210A0041636B2050524F44B7
:10416000554354494F4E5F4D4F444520737563632B
:10417000657373200A00000041636B204745545F5C
:104180005554542073756363657373200A000000EF
:1041900041636B204745545F4D6F64756C652073B8
:1041A000756363657373200A000000004552523A3C
:1041B00020636D6420636F6465206572726F722185
:1041C0000A0000004552523A20636865636B207311
:1041D000756D206572726F72210A00005B45525244
:1041E0005D2067697A77697473506173737468725C
:1041F0006F75676844617461204572726F72200A3E
:1042000000000000482E000810B5024600240023DC
:1042100002B109B9002010BD022303E0D05C2044A4
:10422000C4B25B1C481E9842F8D82046F3E701B59B
:1042300081B0694601AA5078087010784870BDF8BE
:1042400000000CBD0146080601F47F4240EA02204E
:1042500001F47F0240EA122040EA1160704710B575
:1042600002460024302A05DB392A03DCA2F13000A3
:10427000C3B20EE0412A05DB462A03DCA2F1370077
:10428000C3B206E0612A04DB662A02DCA2F1570011
:10429000C3B2302905DB392903DCA1F13000C4B2F7
:1042A0000EE0412905DB462903DCA1F13700C4B249
:1042B00006E0612904DB662902DCA1F15700C4B2E3
:1042C00004EB0310C0B210BD70B5044600250026F3
:1042D000204600F00EFC06460CB9681E70BD002595
:1042E00005E0605D302801D00020F7E76D1CB54285
:1042F000F7D30120F2E72DE9F043034600BF002584
:10430000002400260027012901D002290DD1A3F1A4
:10431000010C4FF06408BCFBF8F4BCFBF8F908FB97
:1043200019C501F10C06174609E04FF0640CB3FB08
:10433000FCF4B3FBFCF80CFB18350E46174606F1EF
:10434000010C4FF01A080CFB08FC4FF00A08BCFBEC
:10435000F8FC05EB950808EB94084FF0020909FBFF
:104360001488C444BC44ACF10100002806DB4FF0C3
:10437000070C90FBFCF80CFB180C07E04FF0070C47
:1043800090FBFCF80CFB180C0CF1070C6046BDE828
:10439000F08301460A46C81701EB90708010A1EB2C
:1043A000800070B9642091FBF0F300FB131030B96A
:1043B0004FF4C87091FBF0F300FB131008B9012013
:1043C00070470020FCE710B504462046FFF7E1FFE8
:1043D00010B14FF4B77010BD40F26D10FBE72DE93E
:1043E000F04190B080460E4640F2B27530226949E5
:1043F00001A800F05AFB344604F5E14400BF11E087
:104400002846FFF7E0FF074640F2A3207843B4EBCD
:10441000C01F06D340F2A3207843A4EBC0146D1C48
:1044200000E001E0002CEBD100BFA8B2ADF83400F1
:10443000002518E0BDF83400FFF7ABFF08B11D20E0
:10444000029001A850F8250040F2A3214843B4EBA4
:10445000C01F07D301A850F825004843A4EBC0149F
:104460006D1C00E001E0002CE4D100BF1C20029094
:10447000681CC0B28DF83600012506E0464884422B
:1044800002D3241A6D1C00E001E0002CF6D100BF1D
:10449000E8B28DF837004FF46160B4FBF0F0C0B2C1
:1044A0008DF838004FF46160B4FBF0F100FB11406F
:1044B0003C21B0FBF1F0C0B28DF839003C20B4FBD8
:1044C000F0F100FB11408DF83A00CDF83B600D98FB
:1044D000C8F800000E98C8F80400BDF83C00A8F821
:1044E00008009DF83E0088F80A0010B0BDE8F08191
:1044F0002DE9F05F80460E46914600241CE016F838
:1045000014A06000401C16F800B0504600F0C7FA36
:104510003038C5B2092D01DDE81FC5B2584600F09C
:10452000BEFA3038C7B2092F01DDF81FC7B207EB5A
:10453000051008F80400641C4C45E0DBBDE8F09F62
:10454000F0B5034600201EE00E5CF71706EB177768
:104550003F1107F130050E5CF71706EB17773F1197
:10456000A6EB07173037FCB2392D01DDEE1DF5B291
:10457000392C01DDE61DF4B203F81050012606EBDC
:1045800040069C55401C9042DEDB002603F812607A
:10459000F0BD00006C5000088051010030B50246AB
:1045A0000B460021002400250AB9481E30BD002119
:1045B00008E0545C581A401E155C5554581A401EA9
:1045C0001454491CB1EB530FF3D30020EEE710B5A0
:1045D00003460020541AB4FBF3F010BD10B5034697
:1045E000002002FB031010BD002071EE601A81EE66
:1045F000802AFCEEC21A11EE900A7047B0EE401A03
:10460000DFEDB21AB0EE610A01EE900AB8EE612A4F
:10461000F0EE601A42EE011AB0EE610A70470246EF
:1046200012B102F0070028B9082901D8002070470C
:104630000120FCE702F00700C0F10800884201D326
:104640000020F4E70120F2E72DE9F047054688460F
:1046500014461E464FF00009CA460027002314B92D
:10466000581EBDE8F087EB0841462846FFF7D7FF04
:1046700007463FB9E05C05F0070106FA01F108437F
:10468000E0541DE0012F1BD1F0B205F00701C1F18C
:10469000080140FA01F905F00700C0F10801FF2008
:1046A000084100EA060A581C205C40EA0900591C2F
:1046B0006054E05C05F007010AFA01F10843E05498
:1046C0000020CEE72DE9F04F8FB004460F4690460C
:1046D0001D460026B246B146B34600200E90B8F102
:1046E000000F00D025B94FF0FF300FB0BDE8F08FBC
:1046F0004FEAD4092A46414601A800F0D6F9012D17
:1047000009D9294601A8FFF749FFB0F1FF3F02D1BF
:104710004FF0FF30E9E739462046FFF780FF824639
:10472000BAF1000F0CD101A810F8090004F007013C
:104730000841C7F10802FF2111410840064321E06A
:10474000BAF1010F1ED101A909F10100085C04F0C2
:104750000701C1F10801791AC1F10802FF211141D5
:1047600000EA010B01A810F8090004F00701084154
:104770000E9004F00700C0F108010BFA01F00643A7
:104780000E9806433046B0E72DE9F04F8FB005464E
:104790000C4616469946189F4FF0000AD346002053
:1047A0000E908046B9F1000F00D027B94FF0FF30CE
:1047B0000FB0BDE8F08F3A46494601A800F075F900
:1047C000012F09D9394601A8FFF7E8FEB0F1FF3FF4
:1047D00002D14FF0FF30EBE731462046FFF71FFFD5
:1047E0008246BAF1000F0CD101A8405D04F0070128
:1047F0000841C6F10802FF211141084040EA0808BB
:1048000021E0BAF1010F1ED101A9681C085C04F077
:104810000701C1F10801711AC1F10802FF2111411C
:1048200000EA010B01A8405D04F0070108410E9069
:1048300004F00700C0F108010BFA01F040EA080893
:104840000E9848EA00084046B2E72DE9F0470446D2
:104850000D461746089E4FF00009CA46C8461BB9C8
:104860004FF0FF30BDE8F08739462846FFF7D7FE06
:104870008046B8F1000F07D1185D05F0070106FA70
:1048800001F1084318551EE0B8F1010F1BD1F0B239
:1048900005F00701C1F1080140FA01F905F0070030
:1048A000C0F10801FF20084100EA060A601C185CFC
:1048B00040EA0900611C5854185D05F007010AFA26
:1048C00001F1084318550020CCE70000000000006B
:1048D000014611B94FF0FF307047C8684860C8689A
:1048E00088600020F8E7014611B94FF0FF307047AB
:1048F0000020C86048608860086000BFF7E7014694
:1049000011B94FF0FF3070470868FCE700B5024668
:1049100012B94FF0FF3000BD50689168884201D154
:104920000020F8E750689168884203D29068516887
:10493000401AF0E71046FFF7E2FF51689368C91A82
:10494000401AE8E730B5044614B94FF0FF3030BDE7
:104950002046FFF7D4FF05462046FFF7D7FF281A69
:10496000F5E72DE9F04104460F461646002514B937
:10497000681EBDE8F08117B94FF0FF30F9E76068B5
:10498000A168884214D22046FFF7C0FFB04201D987
:10499000304602E02046FFF7B9FF054661682A4627
:1049A000384600F082F86068284460602846E0E7F6
:1049B0002046FFF7A4FF6168E268891A401AB042F6
:1049C0000AD9354661682A46384600F06EF86068B4
:1049D000284460602846CCE72046FFF790FF6168D6
:1049E000E268891A451A61682A46384600F05DF87F
:1049F000E0686060721B79192046FFF7B2FF05443A
:104A00002846B6E72DE9F04104460F461546002634
:104A100004B11FB94FF0FF30BDE8F0812046FFF729
:104A200091FFA84202D86FF00100F5E76068A16825
:104A300088422AD82046FFF762FFA168E268891AF7
:104A4000461AB54213D8A0682A46394600F02DF818
:104A5000A0682844A0602046FFF751FFE1680844A1
:104A6000A168884201D1E068A0602846D4E7A06828
:104A70003246394600F019F8E068A060AA1BB9195F
:104A80002046FFF7BFFF3044C6E7A0682A463946F4
:104A900000F00BF8A0682844A0602846BCE7A0F10D
:104AA0006101192900D82038704740EA01039B07AB
:104AB00003D009E008C9121F08C0042AFAD203E093
:104AC00011F8013B00F8013B521EF9D27047D2B2F7
:104AD00001E000F8012B491EFBD270470022F6E7E7
:104AE00010B513460A4604461946FFF7F0FF204664
:104AF00010BD421C10F8011B0029FBD1801A704721
:104B00002DE9F05F0546002092469B468846064602
:104B1000814640241BE0284641464746224600F095
:104B200042F853465A46C01A914110D311461846CE
:104B3000224600F029F82D1A67EB01084F4622465D
:104B40000120002100F020F817EB00094E41201E43
:104B5000A4F10104DFDC484631462A464346BDE85D
:104B6000F09F0000064C074D06E0E06840F00103AE
:104B700094E8070098471034AC42F6D3FBF708FBE3
:104B80009C500008BC500008202A04DB203A00FAA0
:104B900002F1002070479140C2F1200320FA03F394
:104BA000194390407047202A04DB203A21FA02F092
:104BB0000021704721FA02F3D040C2F12002914057
:104BC00008431946704700000FB4054B10B503A900
:104BD000044A029800F018F810BC5DF814FB0000BD
:104BE000B12400084800002002E008C8121F08C1D4
:104BF000002AFAD170477047002001E001C1121F5E
:104C0000002AFBD1704700002DE9FF4F8DB00F4601
:104C10000546002606E025280BD0DDE90F12904757
:104C20006D1C761C28780028F5D111B03046BDE8FF
:104C3000F08F0024A246A1460122EC4900E0044383
:104C400015F8013F203B02FA03F00842F7D128781B
:104C50002A2810D06FF02F022878A0F130010929FE
:104C600014D80AEB8A0102EB410144F0020400EB84
:104C7000010A6D1CF0E701CF5FEA000A03D544F496
:104C80000054CAF1000A44F002046D1C28782E2852
:104C900017D115F8010F44F004042A280ED06FF044
:104CA0002F022878A0F1300109290AD809EB8901DF
:104CB00002EB410100EB01096D1CF2E757F8049B80
:104CC0006D1C28786C280FD006DC4C2817D068287B
:104CD0000DD06A2814D104E0742810D07A280FD19E
:104CE0000DE044F400140AE044F4801401E044F4BC
:104CF00040146978814202D104F580146D1C6D1C4A
:104D00002A786E2A1FD00CDC632A31D004DC002AFA
:104D10008BD0582A11D1A3E0642A68D0692A0CD11B
:104D200065E0732A2ED004DC6F2A73D0702A04D178
:104D30009BE0752A6FD0782A6ED01046DDE90F12FD
:104D40009047761C50E1C4F30250022806D0032895
:104D500009D0042801CF09D0066045E101CFF11741
:104D6000C0E9006140E101CF06803DE106703BE112
:104D700017F8040B8DF8000000208DF80100EB46B9
:104D8000012003E057F804BB4FF0FF3061074FF0FC
:104D9000000102D40DE008F10101884649450FDA0F
:104DA0008045F8DB1BF808100029F4D108E008F171
:104DB000010188468142FADB1BF808100029F6D170
:104DC000DDE90F23AAEB08008146214600F036F901
:104DD000304400EB080604E0DDE90F121BF8010B7C
:104DE0009047B8F10108F7D221464846F7E00A217A
:104DF000C4F302534FF0000B0891022B04D001CFF3
:104E0000C117032B09D00AE0FF1D27F00707F7E8B9
:104E1000020108E032E01FE020E000B2C117042BDD
:104E200001D140B2C117031E71F1000307DA4FF040
:104E3000000CD0EB0C006CEB01012D2302E02305EC
:104E400004D52B238DF82430012303E0E30701D0A0
:104E50002023F7E7984658E00A2110E010210EE0E1
:104E600010204FF0000B08900CE010214FF0000BC9
:104E700044F004044FF00809089103E008214FF0C2
:104E8000000B0891C4F30253022B04D001CF002180
:104E9000032B06D006E0FF1D27F00707F7E8020105
:104EA00003E080B2042B00D1C0B24FF0000823070A
:104EB0002BD5702A07D0DDF820C08CF0100C5CEAEE
:104EC0000B0C05D00EE040238DF82430012308E0C0
:104ED00050EA010306D030238DF824308DF82520C8
:104EE00002239846DDF820C08CF0080C5CEA0B0C1D
:104EF0000BD150EA010301D1630706D530238DF8A9
:104F000024304FF00108A9F10109582A04D038A231
:104F10000B9208AA0A920BE03AA2F9E75B46089ABC
:104F2000FFF7EEFD0B9B9B5C0A9A521E0A921370D0
:104F300050EA0102F2D10A98ADEB000000F1200B1B
:104F4000600702D524F4803401E04FF00109D9450F
:104F500002DDA9EB0B0000E0002000EB0B01414457
:104F60000890AAEB010AE00306D4DDE90F232146ED
:104F7000504600F063F806444FF0000908E009A924
:104F800011F80900DDE90F12904709F10109761CBB
:104F9000C145F4DBE0030CD5DDE90F232146504683
:104FA00000F04CF8064404E0DDE90F123020904791
:104FB000761C0899481E08900029F5DC08E00A983C
:104FC0000A990078491C0A91DDE90F129047761C76
:104FD000BBF10001ABF1010BF1DC21465046DDE9EC
:104FE0000F2300F019F806446D1C1BE60928010088
:104FF000303132333435363738396162636465664F
:105000000000000030313233343536373839414210
:1050100043444546000000002DE9F04104460025C8
:105020001E461746880404D405E039462020B047C0
:105030006D1C641EF9D52846BDE8F0812DE9F041CC
:10504000044600251E469046C80301D5302700E0DF
:105050002027880404D505E041463846B0476D1C3A
:10506000641EF9D52846BDE8F08100001F0000004D
:105070001C0000001F0000001E0000001F000000B8
:105080001E0000001F0000001F0000001E000000A6
:105090001F0000001E0000001F000000BC500008A0
:1050A000000000204C000000E84B000808510008F8
:1050B0004C0000207C110000F84B0008007A030A25
:1050C00000000000000000000102030406070809B8
:1050D000000000000102030401020304060708099E
:1050E0000000000000000000000000000000FF00C1
:1050F00000000000000000000000000000000000B0
:085100000000000000000000A7
:040000050800019D51
:00000001FF
